:020000040000FA
:100000000C9463000C948B000C948B000C94FF05F3
:100010000C94FF050C94FF050C948B000C94DA05EE
:100020000C948B000C948B000C948B000C948B0024
:100030000C948B000C948B000C948B000C948B0014
:100040000C9490050C948B000C945E050C94380570
:100050000C948B000C948B000C948B000C948B00F4
:100060000C948B000C948B0000000008000201002F
:100070000003040700000000000000000000000072
:10008000240027002A000000000023002600290089
:1000900000000000250028002B00040404040404D0
:1000A0000404020202020202030303030303010227
:1000B00004081020408001020408102001020408F6
:1000C0001020A806200A11241FBECFEFD8E0DEBF03
:1000D000CDBF11E0A0E0B1E0ECEFF6E102C0059089
:1000E0000D92AC36B107D9F722E0ACE6B1E001C021
:1000F0001D92A73CB207E1F710E0C2E6D0E004C0D1
:100100002197FE010E946B0BC136D107C9F70E94EF
:100110009F070C94710B0C940000DC0170E0FB0154
:10012000E255FF4FE4911496EC93149750E0FA01D6
:10013000E255FF4FE4911596EC93159766567F4F65
:10014000FB018491E82FF0E0EE0FFF1FE057FF4F17
:100150008591949117969C938E931697FA01E65683
:10016000FF4FE491F0E0EE0FFF1FEA57FF4F85913C
:10017000949119969C938E931897FB016491E62FA6
:10018000F0E0EE0FFF1FE458FF4F859194911B960E
:100190009C938E931A9789E499E51D969C938E9370
:1001A0001C970895AF92BF92CF92DF92EF92FF9289
:1001B0000F931F93CF93DF936C017B018B01040F8F
:1001C000151FEB015E01AE18BF08C017D10759F02B
:1001D0006991D601ED91FC910190F081E02DC6016D
:1001E0000995892B79F7C501DF91CF911F910F9167
:1001F000FF90EF90DF90CF90BF90AF900895FC01FB
:10020000538D448D252F30E0842F90E0821B930B7B
:10021000541710F0CF96089501970895FC01918D21
:10022000828D981761F0A28DAE0FBF2FB11D5D9624
:100230008C91928D9F5F9F73928F90E008958FEFC6
:100240009FEF0895FC01918D828D981731F0828D7A
:10025000E80FF11D858D90E008958FEF9FEF0895D1
:10026000FC01918D228D892F90E0805C9F4F821B35
:1002700091098F73992708958FEC91E00E943001C6
:1002800021E0892B09F420E0822F089580E090E09E
:10029000892B29F00E943C0181110C9400000895E3
:1002A000FC01A48DA80FB92FB11DA35ABF4F2C91EB
:1002B000848D90E001968F739927848FA689B789E2
:1002C0002C93A089B1898C91837080648C93938DD9
:1002D000848D981306C00288F389E02D80818F7D7C
:1002E00080830895EF92FF920F931F93CF93DF9334
:1002F000EC0181E0888F9B8D8C8D98131AC0E88962
:10030000F989808185FF15C09FB7F894EE89FF8930
:100310006083E889F98980818370806480839FBFCE
:1003200081E090E0DF91CF911F910F91FF90EF90CE
:100330000895F62E0B8D10E00F5F1F4F0F731127DE
:10034000E02E8C8D8E110CC00FB607FCFACFE88919
:10035000F989808185FFF5CFCE010E945001F1CF50
:10036000EB8DEC0FFD2FF11DE35AFF4FF0829FB78D
:10037000F8940B8FEA89FB8980818062CFCFCF937D
:10038000DF93EC01888D8823B9F0AA89BB89E889BD
:10039000F9898C9185FD03C0808186FD0DC00FB663
:1003A00007FCF7CF8C9185FFF2CF808185FFEDCFE1
:1003B000CE010E945001E9CFDF91CF91089590E0E6
:1003C000FC01E859FF4F2491FC01E255FF4F3491A5
:1003D000FC01E656FF4FE491EE23C9F0222339F0E9
:1003E000233001F1A8F4213019F1223029F1F0E095
:1003F000EE0FFF1FE057FF4FA591B4918FB7F89410
:10040000EC91611126C030953E233C938FBF089537
:100410002730A9F02830C9F0243049F780918000B6
:100420008F7D03C0809180008F7780938000DFCF25
:1004300084B58F7784BDDBCF84B58F7DFBCF809172
:10044000B0008F778093B000D2CF8091B0008F7DC5
:10045000F9CF3E2BDACFCF93DF9360E08CE00E94A0
:10046000DF0160E088E00E94DF01C7E0D0E060E0EB
:1004700084E00E94DF0180916C0290E00C2E02C0AB
:10048000959587950A94E2F761E080FF60E088E047
:100490000E94DF0161E084E00E94DF01219738F7CC
:1004A00061E08CE0DF91CF910C94DF0161E08CE0A2
:1004B0000E94770661E087E00E94770661E088E0AD
:1004C0000E94770661E084E00E94770610926C0239
:1004D0000E942B0260E087E00C94DF013FB7F894A4
:1004E0008091BF019091C001A091C101B091C20162
:1004F00026B5A89B05C02F3F19F00196A11DB11D7F
:100500003FBFBA2FA92F982F8827BC01CD01620FBA
:10051000711D811D911D42E0660F771F881F991F75
:100520004A95D1F708958F929F92AF92BF92CF9242
:10053000DF92EF92FF926B017C010E946E024B01F1
:100540005C01C114D104E104F104B9F00E946E020F
:10055000681979098A099B09683E734081059105EC
:1005600080F321E0C21AD108E108F10888EE880E74
:1005700083E0981EA11CB11CE4CFFF90EF90DF90A8
:10058000CF90BF90AF909F908F900895FC01808195
:10059000823061F018F4813031F00895833049F0F1
:1005A000843049F008956093B30008956093B400D7
:1005B000089567BD089568BD0895FC01808182306B
:1005C00069F028F423E092E0813051F008958330FF
:1005D00011F126E090E0843019F0089524E091E0D4
:1005E0006230E1F0643079F1613009F03FC041E000
:1005F00050E0BA0101C0660F9A95EAF780916C024B
:10060000862B01C0440F2A95EAF740954823409372
:100610006C020C942B0227E095E0E2CF41E050E021
:10062000BA0102C0660F771F9A95E2F7CB01809559
:1006300090916C02892301C0440F2A95EAF7842B1C
:1006400080936C02E6CF41E050E0FA0102C0EE0F69
:10065000FF1F9A95E2F7CF0101C0440F2A95EAF7F0
:10066000842B809590916C028923EACF0895209184
:10067000C5013091C6012817390771F49091C30163
:100680008091C401981741F0E091C301F0E0E65871
:10069000FE4F808190E008958FEF9FEF08950895B9
:1006A000EF92FF920F931F93CF93DF93DC015C9641
:1006B000ED90FC905D97E114F10479F481E090E015
:1006C00013969C938E93129790E080E0DF91CF91E8
:1006D0001F910F91FF90EF9008955196ED91FC912D
:1006E000529750968C915097982F90950FB75E9691
:1006F0002C915E97122F127021FD6095F894208145
:10070000112319F1282B2083E7012197F1F728E025
:10071000462F50E0308160FF1AC0382B3083E7014C
:100720002197F1F7BA0175956795215089F7112343
:1007300081F08081892380830FBF5C968D919C918D
:100740000197F1F781E090E0C1CF2923DCCF392375
:10075000E5CF9081892BEFCF2091C5013091C60163
:100760002817390771F48091C4012091C30190E0EA
:10077000805C9F4F821B910960E470E00E94430BF4
:10078000089590E080E008952091C5013091C60160
:1007900028173907B9F49091C3018091C4019817C3
:1007A00089F0E091C301F0E0E658FE4F808120918E
:1007B000C30130E02F5F3F4F2F7333272093C301D6
:1007C00090E008958FEF9FEF089590E080E0089506
:1007D000CF93DF931092790110927801C091780144
:1007E000D0917901C03981E0D807B4F46C2F86EA42
:1007F00092E00E94C6026C2F84EA92E00E94C60238
:1008000065E070E080E090E00E9493022296D09331
:100810007901C0937801E2CFDF91CF91089564E030
:1008200086EA92E00E94DD0264E084EA92E00E949F
:10083000DD021092CE0108951F93CF93DF93182FFE
:10084000EB0164E170E080E090E00E9493028EE7AB
:10085000809370018FEF8093710186E08093720125
:100860001093730110927401D0937501C0937601B7
:100870008FEE80937701C0E7D1E0699188EA92E03A
:100880000E94500381E0C837D807B9F7DF91CF91B4
:100890001F9108950F931F93CF93DF93EC01AA85C7
:1008A000BB858C919C81892B8C93AE81BF819C915F
:1008B0008C81809589238C938BE090E00197F1F7F0
:1008C000AE81BF818C919C81892B8C9383E290E0D7
:1008D0000197F1F7AE81BF819C918C81809589232E
:1008E0008C93AA85BB859C918C81809589238C9360
:1008F000A885B9858C919D81892339F090E080E0AD
:10090000DF91CF911F910F9108950E946E02AB016C
:10091000BC018C859D85B0E0A0E08855994EAF4F15
:10092000BF4F840F951FA61FB71F8E879F87A88B69
:10093000B98BE885F98580819D81892361F40E94C6
:100940006E020E851F852889398906171707280723
:10095000390778F7D3CF0E946E022C853D85620F50
:10096000731F811D911D6E877F87888B998BE8850A
:10097000F98580819D81892361F00E946E020E8538
:100980001F8528893989061717072807390778F737
:10099000B5CF0E946E022C853D85A90145505109B5
:1009A0002E853F85FA01E21BF30BCF01860F971FBF
:1009B000A7CFFC0101900020E9F73197AF01481B58
:1009C000590BBC018FEC91E00C94D2008F929F9256
:1009D000AF92BF920F931F93CF93DF93CDB7DEB744
:1009E000A1970FB6F894DEBF0FBECDBF19A242305B
:1009F00008F44AE08E010F5D1F4F842E912CB12C1C
:100A0000A12CA50194010E94120BE62FB901CA0185
:100A1000EA30F4F4E05DD801EE938D01232B242B12
:100A2000252B79F790E080E0109719F0CD010E9416
:100A3000D904A1960FB6F894DEBF0FBECDBFDF91EB
:100A4000CF911F910F91BF90AF909F908F9008957D
:100A5000E95CE1CFCF93DF930E94D904EC0189E2F6
:100A600091E00E94D9048C0F9D1FDF91CF910895D2
:100A70001F920F920FB60F9211242F933F934F9313
:100A80005F936F937F938F939F93AF93BF93EF93F6
:100A9000FF938FEC91E00E945001FF91EF91BF9185
:100AA000AF919F918F917F916F915F914F913F9106
:100AB0002F910F900FBE0F901F9018951F920F92BD
:100AC0000FB60F9211242F938F939F93EF93FF9361
:100AD000E091DF01F091E0018081E091E501F0918A
:100AE000E60182FD1BC090818091E8018F5F8F73CA
:100AF0002091E901821741F0E091E801F0E0E15333
:100B0000FE4F958F8093E801FF91EF919F918F9118
:100B10002F910F900FBE0F901F9018958081F4CFEA
:100B20001F920F920FB60F9211242F933F938F9322
:100B30009F93AF93BF938091BB019091BC01A09113
:100B4000BD01B091BE013091BA0123E0230F2D37D2
:100B500058F50196A11DB11D2093BA018093BB01E8
:100B60009093BC01A093BD01B093BE018091BF01E1
:100B70009091C001A091C101B091C2010196A11D47
:100B8000B11D8093BF019093C001A093C101B093A8
:100B9000C201BF91AF919F918F913F912F910F9083
:100BA0000FBE0F901F90189526E8230F0296A11DE7
:100BB000B11DD2CF1F920F920FB60F9211242F9317
:100BC0003F934F935F936F937F938F939F93AF93D5
:100BD000BF93EF93FF93F0E0E0E00995FF91EF9171
:100BE000BF91AF919F918F917F916F915F914F9145
:100BF0003F912F910F900FBE0F901F9018951F924D
:100C00000F920FB60F9211242F933F934F935F9340
:100C10006F937F938F939F93AF93BF93EF93FF93C4
:100C2000E091C501F091C601309749F0A685B785DE
:100C30008585968D91FF14C09C918923A1F4FF9125
:100C4000EF91BF91AF919F918F917F916F915F9144
:100C50004F913F912F910F900FBE0F901F901895BD
:100C60009C91892361F7A389B4899C91858980959A
:100C700089238C93868997890197F1F7608D718D0F
:100C8000A685B785558538E020E0CB010197F1F7BF
:100C9000822F90E095958795282F4C91452309F058
:100CA0002068315091F7868D81FD20958091C40197
:100CB00090E001968F7399273091C301381799F00E
:100CC000A091C401B0E0A658BE4F2C938093C401FC
:100CD000828D938D0197F1F7A389B4898C919589C1
:100CE000892B8C93ACCF868D8160868FF1CFCF938B
:100CF000DF9390E0FC01E255FF4F249186569F4F11
:100D0000FC0184918823D1F090E0880F991FFC01A9
:100D1000E458FF4FA591B491FC01E057FF4FC591F6
:100D2000D49161110EC09FB7F8948C91E22FE09599
:100D30008E238C932881E223E8839FBFDF91CF919C
:100D400008958FB7F894EC91E22BEC938FBFF6CF18
:100D5000CF931092D2011092D10188EE93E0A0E0DF
:100D6000B0E08093D3019093D401A093D501B093C8
:100D7000D60129E031E03093D0012093CF0125EC5A
:100D800030E03093DC012093DB0124EC30E0309341
:100D9000DE012093DD0120EC30E03093E001209370
:100DA000DF0121EC30E03093E2012093E10122ECFD
:100DB00030E03093E4012093E30126EC30E03093FF
:100DC000E6012093E5011092E8011092E9011092EA
:100DD000EA011092EB0110926D021092AB02109298
:100DE000AA028093AC029093AD02A093AE02B0939E
:100DF000AF028BE191E09093A9028093A802109238
:100E0000BF021092BE021092C1021092C002109254
:100E1000C3021092C2021092C5021092C4026091E5
:100E2000C6026E7F6D7F6093C6026695617081E039
:100E3000682786E00E94DF0161E086E00E94770675
:100E4000E4EBF0E0E491E093B802E0EAF0E0E49152
:100E5000F0E0EE0FFF1FE057FF4F859194919093C4
:100E6000BA028093B90260E085E00E947706809123
:100E7000C60281FD04C061E085E00E94DF0185E0DB
:100E80008093B402E3EBF0E0E491E093B502EFE984
:100E9000F0E0E491F0E0EE0FFF1FEA57FF4F85917D
:100EA00094919093B7028093B60281E08093A6025A
:100EB000C4E0C093A7020E94560280916C02837F17
:100EC00080936C020E942B028091B0008368809313
:100ED000B000C093B1001092B30061E08BE00E94BB
:100EE000770682E08093A402C093A5020E94560276
:100EF00080916C028D7E80936C020E942B02809107
:100F0000B00083628093B000C093B1001092B4002F
:100F100061E083E00E9477064FE06EE082E992E0B4
:100F20000E948D0041E160E180E892E00E948D0026
:100F300043E162E18EE692E0CF910C948D00CF9375
:100F4000DF9300D000D0CDB7DEB7789484B582604F
:100F500084BD84B5816084BD85B5826085BD85B55D
:100F6000816085BD80916E00816080936E001092DB
:100F70008100809181008260809381008091810056
:100F800081608093810080918000816080938000E7
:100F90008091B10084608093B1008091B000816045
:100FA0008093B00080917A00846080937A00809171
:100FB0007A00826080937A0080917A0081608093C9
:100FC0007A0080917A00806880937A001092C10044
:100FD000E091DF01F091E00182E08083E091DB01AC
:100FE000F091DC011082E091DD01F091DE018FECE7
:100FF00080831092E701E091E301F091E40186E043
:101000008083E091E101F091E20180818061808341
:10101000E091E101F091E201808188608083E091BC
:10102000E101F091E201808180688083E091E1013B
:10103000F091E20180818F7D80831092C302109233
:10104000C2021092C1021092C0021092BF0210920E
:10105000BE028DE991E09093C5028093C402909105
:10106000B402963108F047C02DEB30E03093BF0258
:101070002093BE022BE931E03093C1022093C002DD
:101080002CE231E03093C3022093C2022091680029
:1010900084E0983048F031E09E3008F430E081E0A0
:1010A00001C0880F3A95EAF7822B809368002DE6FD
:1010B00030E0983050F02BE630E09E3030F02CE6F7
:1010C00030E0963110F030E020E03093BC02209305
:1010D000BB02292F30E0983008F03EC181E001C00A
:1010E000880F9A95EAF78093BD028091C40290918F
:1010F000C5020197F1F78091C2029091C302892B3A
:1011000049F1E091C501F091C60182E0E83AF807A3
:1011100009F1309739F0A389B4899C91858980952C
:1011200089238C938091C6028E7F8093C602109291
:10113000C4011092C30188EA92E09093C6018093A3
:10114000C501E091BB02F091BC0280819091BD028B
:10115000892B808364EF71E080E090E00E9493022D
:1011600062E070E089E00E941C0468EC70E080E0BE
:1011700090E00E94930261E07EE182E20E941C0402
:1011800061E070E088E00E941C048CE291E00E9423
:101190002A0564E086EA92E00E94DD0264E084EAC7
:1011A00092E00E94DD0289E3C82ED12CE12CF12CC3
:1011B00090E0292E90E0392E11E06CE370E080E0A1
:1011C00090E00E94930282E992E00E944A04BC01EE
:1011D00090E080E0A70196010E94120BC901892BC3
:1011E00009F4C7C03093C8012093C70183E491E09C
:1011F0000E94D9046091C7017091C80190E080E01D
:101200004AE00E94E60489E291E00E94D9048091BC
:10121000C7019091C8018536910508F4B1C01093BB
:1012200000018091C901882309F4B6C08091CC01E6
:10123000882309F4B4C086E491E00E942A0570E096
:1012400060E084E00E941C048091CA019091CB016F
:1012500001969093CB018093CA01C39774F080915B
:10126000CC01882331F01092C90188E591E00E94F9
:101270002A051092CB011092CA0182E992E00E94E5
:101280004A04BC0190E080E0A70196010E94120B85
:1012900029013A0180E892E00E944A04BC0190E0F2
:1012A00080E0A70196010E94120B49015A018EE6C7
:1012B00092E00E944A04BC0190E080E0A701960100
:1012C0000E94120B29833A834B835C834AE0C3015B
:1012D000B2010E94E60486E591E00E94D9044AE04A
:1012E000C501B4010E94E60486E591E00E94D9049C
:1012F0004AE069817A818B819C810E94E6048AE2BE
:1013000091E00E94D90491E0491A51088EE14816F3
:10131000510408F44CC091E0891A91088EE18816B6
:10132000910408F444C089819A8101974E9708F48A
:101330003EC08091CE0181116AC01093CE0161E060
:1013400086EA92E00E94DD0261E084EA92E00E9477
:10135000DD020E94E8035BC09E3040F42850310952
:1013600081E001C0880F2A95EAF7BDCE2E503109E1
:10137000F7CF8CE494E09093C8018093C70136CFF7
:1013800080910001882309F451CF1092000110933D
:10139000C9011093CC014ACF1092CC0147CF8FE402
:1013A00091E00E942A0570E060E085E04BCF0E944A
:1013B0000F0464EF71E080E090E00E94930280915E
:1013C000CD01811130C061E086EA92E00E94DD0229
:1013D00062E084EA92E00E94DD021093CD010E9457
:1013E000E8030E94880A20E639E040E050E00E94CD
:1013F000E00A6C597F4F8F4F9F4F0E9493020E94CB
:101400000F0464EF71E080E090E00E9493022114E9
:10141000310409F4D2CE0E943C01882309F4CDCED8
:101420000E940000CACE62E086EA92E00E94DD02DD
:1014300061E084EA92E00E94DD021092CD01CFCFFC
:101440008BE191E09093A9028093A8028091C5015D
:101450009091C601885A924071F4E091BB02F091DC
:10146000BC0290818091BD02809589238083109277
:10147000C6011092C50108958F929F92AF92BF92BC
:10148000CF92DF92EF92FF92CF93DF93EC016881CE
:1014900079818A819B81611571058105910521F40E
:1014A00064E279ED8BE597E02DE133EF41E050E028
:1014B0000E94E00A49015A019B01AC01A7EAB1E48C
:1014C0000E94FF0A6B017C01ACEEB4EFA501940110
:1014D0000E940D0BC60ED71EE81EF91EF7FE06C0B1
:1014E00081E0C81AD108E10880E8F80AC882D982E8
:1014F000EA82FB82C701B6019F77DF91CF91FF900F
:10150000EF90DF90CF90BF90AF909F908F90089515
:101510008F929F92AF92BF92CF92DF92EF92FF9203
:101520006091010170910201809103019091040189
:10153000611571058105910521F464E279ED8BE572
:1015400097E02DE133EF41E050E00E94E00A4901CD
:101550005A019B01AC01A7EAB1E40E94FF0A6B01AA
:101560007C01ACEEB4EFA50194010E940D0BC60EF8
:10157000D71EE81EF91EF7FE06C081E0C81AD10882
:10158000E10880E8F80AC0920101D0920201E092DD
:101590000301F0920401C701B6019F77FF90EF901D
:1015A000DF90CF90BF90AF909F908F900895609301
:1015B0000101709302018093030190930401089547
:1015C000052E97FB1EF400940E94F70A57FD07D0E2
:1015D0000E94120B07FC03D04EF40C94F70A5095AE
:1015E0004095309521953F4F4F4F5F4F089590950F
:1015F0008095709561957F4F8F4F9F4F08950E9402
:10160000340BA59F900DB49F900DA49F800D911D4C
:1016100011240895B7FF0C94FF0A0E94FF0A821B51
:10162000930B0895A1E21A2EAA1BBB1BFD010DC04E
:10163000AA1FBB1FEE1FFF1FA217B307E407F50782
:1016400020F0A21BB30BE40BF50B661F771F881F5E
:10165000991F1A9469F760957095809590959B01F4
:10166000AC01BD01CF010895A29FB001B39FC0019D
:10167000A39F700D811D1124911DB29F700D811DBE
:101680001124911D089597FB072E16F4009407D09E
:1016900077FD09D00E94570B07FC05D03EF49095CA
:1016A00081959F4F0895709561957F4F0895AA1B6E
:1016B000BB1B51E107C0AA1FBB1FA617B70710F03D
:1016C000A61BB70B881F991F5A95A9F7809590956F
:1016D000BC01CD010895EE0FFF1F0590F491E02DA0
:1016E000099410E0C2E6D0E004C0FE010E946B0B3A
:1016F0002196C336D107C9F7F894FFCF0101000046
:1017000000000000007201D200FF00BF0130010E96
:10171000012201000000005003D200E5034F03AC9A
:1017200003C40337030D0A00617564696F20737485
:1017300061727420636F6D706C6574652E2E004449
:1017400020002D2D2D2D2D3A202B002D2D2D2D2D32
:101750003A202D002F2F2F2F2F2F205045414B2087
:081760002F2F2F2F2F2F000067
:107E0000112484B714BE81FFF0D085E080938100F7
:107E100082E08093C00088E18093C10086E0809377
:107E2000C20080E18093C4008EE0C9D0259A86E02C
:107E300020E33CEF91E0309385002093840096BBD3
:107E4000B09BFECF1D9AA8958150A9F7CC24DD24C4
:107E500088248394B5E0AB2EA1E19A2EF3E0BF2EE7
:107E6000A2D0813461F49FD0082FAFD0023811F036
:107E7000013811F484E001C083E08DD089C08234E0
:107E800011F484E103C0853419F485E0A6D080C0E4
:107E9000853579F488D0E82EFF2485D0082F10E0AE
:107EA000102F00270E291F29000F111F8ED06801E7
:107EB0006FC0863521F484E090D080E0DECF843638
:107EC00009F040C070D06FD0082F6DD080E0C81688
:107ED00080E7D80618F4F601B7BEE895C0E0D1E017
:107EE00062D089930C17E1F7F0E0CF16F0E7DF06D8
:107EF00018F0F601B7BEE89568D007B600FCFDCFD4
:107F0000A601A0E0B1E02C9130E011968C91119780
:107F100090E0982F8827822B932B1296FA010C0160
:107F200087BEE89511244E5F5F4FF1E0A038BF0790
:107F300051F7F601A7BEE89507B600FCFDCF97BE46
:107F4000E89526C08437B1F42ED02DD0F82E2BD052
:107F50003CD0F601EF2C8F010F5F1F4F84911BD097
:107F6000EA94F801C1F70894C11CD11CFA94CF0C13
:107F7000D11C0EC0853739F428D08EE10CD085E9AC
:107F80000AD08FE07ACF813511F488E018D01DD067
:107F900080E101D065CF982F8091C00085FFFCCF94
:107FA0009093C60008958091C00087FFFCCF809118
:107FB000C00084FD01C0A8958091C6000895E0E648
:107FC000F0E098E1908380830895EDDF803219F02E
:107FD00088E0F5DFFFCF84E1DECF1F93182FE3DFCA
:107FE0001150E9F7F2DF1F91089580E0E8DFEE27F6
:047FF000FF270994CA
:027FFE00040479
:00000001FF
