:020000040000FA
:100000000C9463000C948B000C948B000C9486066B
:100010000C9486060C9486060C948B000C94610656
:100020000C948B000C948B000C948B000C948B0024
:100030000C948B000C948B000C948B000C948B0014
:100040000C9417060C948B000C94E5050C94BF05DA
:100050000C948B000C948B000C948B000C948B00F4
:100060000C948B000C948B0000000008000201002F
:100070000003040700000000000000000000000072
:10008000240027002A000000000023002600290089
:1000900000000000250028002B00040404040404D0
:1000A0000404020202020202030303030303010227
:1000B00004081020408001020408102001020408F6
:1000C00010202F07380B11241FBECFEFD8E0DEBF62
:1000D000CDBF11E0A0E0B1E0ECE2F9E102C0059093
:1000E0000D92A83AB107D9F723E0A8EAB1E001C020
:1000F0001D92A132B207E1F710E0C2E6D0E004C0E1
:100100002197FE010E94830CC136D107C9F70E94D6
:1001100042080C94890C0C9400002FB7F89460915D
:10012000F7017091F8018091F9019091FA012FBFC8
:100130000895DC0170E0FB01E255FF4FE491149655
:10014000EC93149750E0FA01E255FF4FE4911596B5
:10015000EC93159766567F4FFB018491E82FF0E0F2
:10016000EE0FFF1FE057FF4F8591949117969C93D8
:100170008E931697FA01E656FF4FE491F0E0EE0FEA
:10018000FF1FEA57FF4F8591949119969C938E9388
:100190001897FB016491E62FF0E0EE0FFF1FE45883
:1001A000FF4F859194911B969C938E931A9789E4A7
:1001B00099E51D969C938E931C970895AF92BF92DC
:1001C000CF92DF92EF92FF920F931F93CF93DF9323
:1001D0006C017B018B01040F151FEB015E01AE1852
:1001E000BF08C017D10759F06991D601ED91FC9174
:1001F0000190F081E02DC6010995892B79F7C501A1
:10020000DF91CF911F910F91FF90EF90DF90CF90F2
:10021000BF90AF900895FC01538D448D252F30E0A1
:10022000842F90E0821B930B541710F0CF96089503
:1002300001970895FC01918D828D981761F0A28D30
:10024000AE0FBF2FB11D5D968C91928D9F5F9F73F6
:10025000928F90E008958FEF9FEF0895FC01918DAC
:10026000828D981731F0828DE80FF11D858D90E019
:1002700008958FEF9FEF0895FC01918D228D892FB6
:1002800090E0805C9F4F821B91098F73992708959E
:100290008DE092E00E943C0121E0892B09F420E0EE
:1002A000822F089580E090E0892B29F00E94480178
:1002B00081110C9400000895FC01A48DA80FB92FA2
:1002C000B11DA35ABF4F2C91848D90E001968F737E
:1002D0009927848FA689B7892C93A089B1898C919D
:1002E000837080648C93938D848D981306C00288EC
:1002F000F389E02D80818F7D80830895EF92FF92B6
:100300000F931F93CF93DF93EC0181E0888F9B8D38
:100310008C8D98131AC0E889F989808185FF15C0F2
:100320009FB7F894EE89FF896083E889F989808115
:100330008370806480839FBF81E090E0DF91CF91E4
:100340001F910F91FF90EF900895F62E0B8D10E006
:100350000F5F1F4F0F731127E02E8C8D8E110CC075
:100360000FB607FCFACFE889F989808185FFF5CFC0
:10037000CE010E945C01F1CFEB8DEC0FFD2FF11D42
:10038000E35AFF4FF0829FB7F8940B8FEA89FB89FD
:1003900080818062CFCFCF93DF93EC01888D88235B
:1003A000B9F0AA89BB89E889F9898C9185FD03C0D8
:1003B000808186FD0DC00FB607FCF7CF8C9185FFBD
:1003C000F2CF808185FFEDCFCE010E945C01E9CFA5
:1003D000DF91CF91089590E0FC01E859FF4F2491FF
:1003E000FC01E255FF4F3491FC01E656FF4FE491CA
:1003F000EE23C9F0222339F0233001F1A8F4213093
:1004000019F1223029F1F0E0EE0FFF1FE057FF4F06
:10041000A591B4918FB7F894EC91611126C03095F5
:100420003E233C938FBF08952730A9F02830C9F0B0
:10043000243049F7809180008F7D03C08091800037
:100440008F7780938000DFCF84B58F7784BDDBCF3B
:1004500084B58F7DFBCF8091B0008F778093B00003
:10046000D2CF8091B0008F7DF9CF3E2BDACFCF93E2
:10047000DF9360E08CE00E94EB0160E088E00E9486
:10048000EB01C7E0D0E060E084E00E94EB018091E6
:10049000AA0290E00C2E02C0959587950A94E2F787
:1004A00061E080FF60E088E00E94EB0161E084E0B1
:1004B0000E94EB01219738F761E08CE0DF91CF914A
:1004C0000C94EB0161E08CE00E94FE0661E087E0A5
:1004D0000E94FE0661E088E00E94FE0661E084E082
:1004E0000E94FE061092AA020E94370260E087E096
:1004F0000C94EB013FB7F8948091FB019091FC01C3
:10050000A091FD01B091FE0126B5A89B05C02F3F2B
:1005100019F00196A11DB11D3FBFBA2FA92F982F29
:100520008827BC01CD01620F711D811D911D42E024
:10053000660F771F881F991F4A95D1F708958F92EC
:100540009F92AF92BF92CF92DF92EF92FF924B01B8
:100550005C010E947A026B017C010E947A026C1994
:100560007D098E099F09683E734081059105A8F3B6
:1005700021E0821A9108A108B10888EEC80E83E034
:10058000D81EE11CF11C81149104A104B10429F7C7
:10059000FF90EF90DF90CF90BF90AF909F908F90A3
:1005A0000895FC018081823061F018F4813031F0CF
:1005B0000895833049F0843049F008956093B30082
:1005C00008956093B400089567BD089568BD0895C7
:1005D000FC018081823069F028F423E092E08130D0
:1005E00051F00895833011F126E090E0843019F045
:1005F000089524E091E06230E1F0643079F16130F7
:1006000009F03FC041E050E0BA0101C0660F9A9581
:10061000EAF78091AA02862B01C0440F2A95EAF7D7
:10062000409548234093AA020C94370227E095E0B6
:10063000E2CF41E050E0BA0102C0660F771F9A9501
:10064000E2F7CB0180959091AA02892301C0440F63
:100650002A95EAF7842B8093AA02E6CF41E050E086
:10066000FA0102C0EE0FFF1F9A95E2F7CF0101C019
:10067000440F2A95EAF7842B80959091AA0289234A
:10068000EACF0895CF92DF92EF92FF921F93CF931C
:10069000DF93FC01108111110AC010E0812FDF915E
:1006A000CF911F91FF90EF90DF90CF900895EC01D4
:1006B0000580F681E02D0995C980DA80EB80FC8009
:1006C0006C197D098E099F0997FDE7CF1882E6CF47
:1006D000CF92DF92EF92FF920F931F93CF93DF930E
:1006E000FC01208121111CC07B016A01EC0181E029
:1006F00080830580F681E02D09958601970137FFFB
:1007000007C030952095109501951F4F2F4F3F4FF3
:10071000060F171F281F391F09831A832B833C8359
:10072000DF91CF911F910F91FF90EF90DF90CF90CD
:10073000089520910102309102022817390771F4BF
:100740009091FF0180910002981741F0E091FF0124
:10075000F0E0EA54FE4F808190E008958FEF9FEF24
:1007600008950895EF92FF920F931F93CF93DF9315
:10077000DC015C96ED90FC905D97E114F10479F456
:1007800081E090E013969C938E93129790E080E026
:10079000DF91CF911F910F91FF90EF9008955196A7
:1007A000ED91FC91529750968C915097982F90957F
:1007B0000FB75E962C915E97122F127021FD6095F7
:1007C000F8942081112319F1282B2083E701219728
:1007D000F1F728E0462F50E0308160FF1AC0382B37
:1007E0003083E7012197F1F7BA017595679521509C
:1007F00089F7112381F08081892380830FBF5C9664
:100800008D919C910197F1F781E090E0C1CF292370
:10081000DCCF3923E5CF9081892BEFCF20910102E6
:10082000309102022817390771F48091000220915B
:10083000FF0190E0805C9F4F821B910960E470E0B3
:100840000E945B0C089590E080E0089520910102E1
:100850003091020228173907B9F49091FF01809175
:100860000002981789F0E091FF01F0E0EA54FE4F92
:1008700080812091FF0130E02F5F3F4F2F7333279E
:100880002093FF0190E008958FEF9FEF089590E08F
:1008900080E0089564E084EE92E00E94E80264E063
:1008A00082EE92E00E94E80210920A0208951F93DD
:1008B000CF93DF93182FEB0164E170E080E090E0CC
:1008C0000E949F028EE78093AC018FEF8093AD0171
:1008D00086E08093AE011093AF011092B001D093E7
:1008E000B101C093B2018FEE8093B301CCEAD1E0A5
:1008F00069918BEF92E00E94B20381E0C43BD8077C
:10090000B9F7DF91CF911F9108950F931F93CF9364
:10091000DF93EC01AA85BB858C919C81892B8C93FC
:10092000AE81BF819C918C81809589238C938BE0D3
:1009300090E00197F1F7AE81BF818C919C81892B6A
:100940008C9383E290E00197F1F7AE81BF819C9197
:100950008C81809589238C93AA85BB859C918C8101
:10096000809589238C93A885B9858C919D81892355
:1009700039F090E080E0DF91CF911F910F910895C1
:100980000E947A02AB01BC018C859D85B0E0A0E09D
:100990008855994EAF4FBF4F840F951FA61FB71FA5
:1009A0008E879F87A88BB98BE885F98580819D818B
:1009B000892361F40E947A020E851F85288939896E
:1009C000061717072807390778F7D3CF0E947A024E
:1009D0002C853D85620F731F811D911D6E877F875A
:1009E000888B998BE885F98580819D81892361F0C9
:1009F0000E947A020E851F852889398906171707F4
:100A00002807390778F7B5CF0E947A022C853D85F3
:100A1000A901455051092E853F85FA01E21BF30BD0
:100A2000CF01860F971FA7CFFC0101900020E9F7A7
:100A30003197AF01481B590BBC018DE092E00C943B
:100A4000DE008F929F92AF92BF920F931F93CF932E
:100A5000DF93CDB7DEB7A1970FB6F894DEBF0FBE18
:100A6000CDBF19A2423008F44AE08E010F5D1F4F3E
:100A7000842E912CB12CA12CA50194010E942A0C4A
:100A8000E62FB901CA01EA30F4F4E05DD801EE9333
:100A90008D01232B242B252B79F790E080E01097F4
:100AA00019F0CD010E941405A1960FB6F894DEBF8F
:100AB0000FBECDBFDF91CF911F910F91BF90AF902F
:100AC0009F908F900895E95CE1CFCF92DF92EF92F3
:100AD000FF92CF93DF936B017C016DE28DE092E09A
:100AE0000E947E01EC0166277727CB016C197D09F6
:100AF0008E099F094AE00E9421058C0F9D1FDF91FE
:100B0000CF91FF90EF90DF90CF900895CF93DF9338
:100B10000E941405EC0189E291E00E9414058C0FFB
:100B20009D1FDF91CF910895CF93DF938CE291E0E9
:100B30000E9486051092B5011092B401C091B401D3
:100B4000D091B501C03981E0D807B4F46C2F84EEA0
:100B500092E00E94D1026C2F82EE92E00E94D102BC
:100B600065E070E080E090E00E949F022296D093C2
:100B7000B501C093B401E2CFDF91CF9108951F92E8
:100B80000F920FB60F9211242F933F934F935F93C1
:100B90006F937F938F939F93AF93BF93EF93FF9345
:100BA0008DE092E00E945C01FF91EF91BF91AF91C7
:100BB0009F918F917F916F915F914F913F912F9175
:100BC0000F900FBE0F901F9018951F920F920FB6A7
:100BD0000F9211242F938F939F93EF93FF93E091A4
:100BE0001D02F0911E028081E0912302F091240207
:100BF00082FD1BC09081809126028F5F8F732091B0
:100C00002702821741F0E0912602F0E0E35FFD4FFA
:100C1000958F80932602FF91EF919F918F912F9155
:100C20000F900FBE0F901F9018958081F4CF1F92E8
:100C30000F920FB60F9211242F933F938F939F9390
:100C4000AF93BF938091F7019091F801A091F901C2
:100C5000B091FA013091F60123E0230F2D3758F5BA
:100C60000196A11DB11D2093F6018093F701909389
:100C7000F801A093F901B093FA018091FB019091E2
:100C8000FC01A091FD01B091FE010196A11DB11DD5
:100C90008093FB019093FC01A093FD01B093FE01B2
:100CA000BF91AF919F918F913F912F910F900FBE68
:100CB0000F901F90189526E8230F0296A11DB11DD5
:100CC000D2CF1F920F920FB60F9211242F933F9302
:100CD0004F935F936F937F938F939F93AF93BF9344
:100CE000EF93FF93F0E0E0E00995FF91EF91BF9162
:100CF000AF919F918F917F916F915F914F913F91B4
:100D00002F910F900FBE0F901F9018951F920F926A
:100D10000FB60F9211242F933F934F935F936F93CE
:100D20007F938F939F93AF93BF93EF93FF93E09144
:100D30000102F0910202309749F0A685B7858585BA
:100D4000968D91FF14C09C918923A1F4FF91EF919E
:100D5000BF91AF919F918F917F916F915F914F91D3
:100D60003F912F910F900FBE0F901F9018959C915F
:100D7000892361F7A389B4899C918589809589230A
:100D80008C93868997890197F1F7608D718DA6857F
:100D9000B785558538E020E0CB010197F1F7822F28
:100DA00090E095958795282F4C91452309F0206870
:100DB000315091F7868D81FD20958091000290E061
:100DC00001968F7399273091FF01381799F0A09100
:100DD0000002B0E0AA54BE4F2C9380930002828D93
:100DE000938D0197F1F7A389B4898C919589892B0B
:100DF0008C93ACCF868D8160868FF1CFCF93DF93BC
:100E000090E0FC01E255FF4F249186569F4FFC0174
:100E100084918823D1F090E0880F991FFC01E45859
:100E2000FF4FA591B491FC01E057FF4FC591D491BC
:100E300061110EC09FB7F8948C91E22FE0958E233C
:100E40008C932881E223E8839FBFDF91CF9108959F
:100E50008FB7F894EC91E22BEC938FBFF6CFCF9342
:100E60001092100210920F0288EE93E0A0E0B0E022
:100E70008093110290931202A0931302B093140274
:100E800029E031E030930E0220930D0225EC30E092
:100E900030931A022093190224EC30E030931C02A4
:100EA00020931B0220EC30E030931E0220931D02A1
:100EB00021EC30E03093200220931F0222EC30E03E
:100EC000309322022093210226EC30E0309324025A
:100ED00020932302109226021092270210922802D9
:100EE000109229021092AB0210921A032DE830E002
:100EF0003093200320931F031092FE021092FD02F4
:100F00008093FF0290930003A0930103B093020328
:100F10008BE191E09093FC028093FB02109212030C
:100F200010921103109214031092130310921603DF
:100F30001092150310921803109217036091190371
:100F40006E7F6D7F609319036695617081E06827FD
:100F500086E00E94EB0161E086E00E94FE06E4EB81
:100F6000F0E0E491E0930B03E0EAF0E0E491F0E0DC
:100F7000EE0FFF1FE057FF4F8591949190930D0363
:100F800080930C0360E085E00E94FE0680911903C7
:100F900081FD04C061E085E00E94EB0185E0809363
:100FA0000703E3EBF0E0E491E0930803EFE9F0E0FE
:100FB000E491F0E0EE0FFF1FEA57FF4F8591949107
:100FC00090930A03809309031092F4028DE890E055
:100FD0009093FA028093F9021092ED029093F3023B
:100FE0008093F2021092E6029093EC028093EB025F
:100FF00081E08093E402C4E0C093E5020E946202B3
:101000008091AA02837F8093AA020E943702809176
:10101000B00083688093B000C093B1001092B30019
:1010200061E08BE00E94FE0682E08093E202C093C2
:10103000E3020E9462028091AA028D7E8093AA023E
:101040000E9437028091B00083628093B000C09309
:10105000B1001092B40061E083E00E94FE064FE010
:101060006EE080ED92E00E94990041E160E18EEB3C
:1010700092E00E94990043E162E18CEA92E0CF9114
:101080000C949900CF93DF9300D000D0CDB7DEB79A
:10109000789484B5826084BD84B5816084BD85B553
:1010A000826085BD85B5816085BD80916E0081605F
:1010B00080936E0010928100809181008260809305
:1010C0008100809181008160809381008091800007
:1010D0008160809380008091B10084608093B10032
:1010E0008091B00081608093B00080917A0084602C
:1010F00080937A0080917A00826080937A00809158
:101100007A00816080937A0080917A008068809371
:101110007A001092C100E0911D02F0911E0282E05F
:101120008083E0911902F0911A021082E0911B0273
:10113000F0911C028FEC808310922502E091210235
:10114000F091220286E08083E0911F02F09120025C
:10115000808180618083E0911F02F0912002808174
:1011600088608083E0911F02F09120028081806876
:101170008083E0911F02F091200280818F7D808327
:101180001092160310921503109214031092130379
:1011900010921203109211038DE991E090931803BD
:1011A0008093170390910703963108F047C02DEB09
:1011B00030E030931203209311032BE931E0309398
:1011C0001403209313032CE231E030931603209391
:1011D00015032091680084E0983048F031E09E309B
:1011E00008F430E081E001C0880F3A95EAF7822BDD
:1011F000809368002DE630E0983050F02BE630E028
:101200009E3030F02CE630E0963110F030E020E0F7
:1012100030930F0320930E03292F30E0983008F00D
:10122000CFC181E001C0880F9A95EAF7809310033F
:1012300080911703909118030197F1F7809115039E
:1012400090911603892B49F1E0910102F09102027D
:1012500022E0EB3FF20709F1309739F0A389B48916
:101260009C918589809589238C93809119038E7F29
:1012700080931903109200021092FF018BEF92E00D
:101280009093020280930102E0910E03F0910F030C
:10129000808190911003892B808364EF71E080E05E
:1012A00090E00E949F0262E070E089E00E94570493
:1012B00068EC70E080E090E00E949F0261E07EE1D7
:1012C00082E20E94570461E070E088E00E945704C7
:1012D00087E391E00E94860564E084EE92E00E943C
:1012E000E80264E082EE92E00E94E80289E3C82E00
:1012F000D12CE12CF12C92E0292E312C11E080ED43
:1013000092E00E948504BC0190E080E0A701960174
:101310000E942A0CC901892B09F45FC13093040291
:10132000209303028EE491E00E9414058091030251
:10133000909104028536910508F456C16FEF7FEF56
:10134000CB010E94650589E291E00E94140510938B
:10135000000180910502882309F45DC18091080293
:10136000882309F45BC184E591E00E94860570E062
:1013700060E084E00E945704809106029091070289
:101380000196909307028093060280910602909145
:101390000702C3977CF180910802882359F180915C
:1013A0001A03811117C084E691E00E9414054AE0F7
:1013B0006FE070E080E090E00E94210581E891E01C
:1013C0000E94860548E95AE360E070E08AE193E014
:1013D0000E9468038AE193E00E944203882351F04F
:1013E00081E991E00E9486051092050210920702A1
:1013F0001092060280ED92E00E948504BC0190E00C
:1014000080E0A70196010E942A0C29013A018EEB87
:1014100092E00E948504BC0190E080E0A701960163
:101420000E942A0C49015A018CEA92E00E9485042C
:10143000BC0190E080E0A70196010E942A0C29835C
:101440003A834B835C8381EA91E00E9414054AE071
:10145000C301B2010E94210582E691E00E941405B9
:101460004AE0C501B4010E94210582E691E00E9494
:1014700014054AE069817A818B819C810E94210553
:101480008AE291E00E94140591E0491A5108809186
:101490000B0290910C022EE14216510490F021E0D3
:1014A000821A91082EE18216910458F029813A811E
:1014B000215031092E31310520F0181619060CF093
:1014C000C4C0892B81F40E944A0444EF51E060E0DB
:1014D00070E084EF92E00E94680381E090E09093D6
:1014E0000C0280930B0280910B0290910C020197E9
:1014F00071F584EF92E00E944203882341F18091CC
:101500000902811195C061E084EE92E00E94E80238
:1015100062E082EE92E00E94E802109309020E94CB
:1015200094050E94A00B24E338E040E050E00E94C4
:10153000F80BAB01BC0140575E4F6F4F7F4F8DEEF4
:1015400092E00E94680330920C0220920B0280917C
:101550000B0290910C020297B1F48DEE92E00E9482
:101560004203882381F00E944A0444EF51E060E086
:1015700070E086EE92E00E94680383E090E0909332
:101580000C0280930B0280910B0290910C02039746
:1015900051F486EE92E00E944203882321F01092DB
:1015A0000C0210920B0280E090E0892B09F4A7CE88
:1015B0000E944801882309F4A1CE0E9400009ECE1B
:1015C0009E3040F42850310981E001C0880F2A95EF
:1015D000EAF72CCE2E503109F7CF8CE494E09093AB
:1015E0000402809303029ECE80910001882309F4B7
:1015F000B5CE4AE061E070E080E090E00E94210515
:1016000089E291E00E9414051092000110930502F6
:1016100010930802A3CE10920802A0CE8CE591E0B0
:101620000E94860570E060E085E00E945704ADCE20
:1016300062E084EE92E00E94E80261E082EE92E0D5
:101640000E94E802109209026ACF80910A02811179
:10165000AACF10930A0261E084EE92E00E94E802B1
:1016600061E082EE92E00E94E8020E9494059BCF26
:101670008BE191E09093FC028093FB028091010248
:10168000909102028B5F924071F4E0910E03F09111
:101690000F0390818091100380958923808310929D
:1016A00002021092010208958F929F92AF92BF9210
:1016B000CF92DF92EF92FF92CF93DF93EC0168819C
:1016C00079818A819B81611571058105910521F4DC
:1016D00064E279ED8BE597E02DE133EF41E050E0F6
:1016E0000E94F80B49015A019B01AC01A7EAB1E441
:1016F0000E94170C6B017C01ACEEB4EFA5019401C4
:101700000E94250CC60ED71EE81EF91EF7FE06C065
:1017100081E0C81AD108E10880E8F80AC882D982B5
:10172000EA82FB82C701B6019F77DF91CF91FF90DC
:10173000EF90DF90CF90BF90AF909F908F900895E3
:101740008F929F92AF92BF92CF92DF92EF92FF92D1
:101750006091010170910201809103019091040157
:10176000611571058105910521F464E279ED8BE540
:1017700097E02DE133EF41E050E00E94F80B490182
:101780005A019B01AC01A7EAB1E40E94170C6B015E
:101790007C01ACEEB4EFA50194010E94250CC60EAD
:1017A000D71EE81EF91EF7FE06C081E0C81AD10850
:1017B000E10880E8F80AC0920101D0920201E092AB
:1017C0000301F0920401C701B6019F77FF90EF90EB
:1017D000DF90CF90BF90AF909F908F9008956093CF
:1017E0000101709302018093030190930401089515
:1017F000052E97FB1EF400940E940F0C57FD07D096
:101800000E942A0C07FC03D04EF40C940F0C509548
:101810004095309521953F4F4F4F5F4F08959095DC
:101820008095709561957F4F8F4F9F4F08950E94CF
:101830004C0CA59F900DB49F900DA49F800D911D01
:1018400011240895B7FF0C94170C0E94170C821BEB
:10185000930B0895A1E21A2EAA1BBB1BFD010DC01C
:10186000AA1FBB1FEE1FFF1FA217B307E407F50750
:1018700020F0A21BB30BE40BF50B661F771F881F2C
:10188000991F1A9469F760957095809590959B01C2
:10189000AC01BD01CF010895A29FB001B39FC0016B
:1018A000A39F700D811D1124911DB29F700D811D8C
:1018B0001124911D089597FB072E16F4009407D06C
:1018C00077FD09D00E946F0C07FC05D03EF490957F
:1018D00081959F4F0895709561957F4F0895AA1B3C
:1018E000BB1B51E107C0AA1FBB1FA617B70710F00B
:1018F000A61BB70B881F991F5A95A9F7809590953D
:10190000BC01CD010895EE0FFF1F0590F491E02D6D
:10191000099410E0C2E6D0E004C0FE010E94830CEE
:101920002196C336D107C9F7F894FFCF0101000013
:1019300000000000007E01DE000B01CB013C011A1B
:10194000012E0100000000B203DE004704B1030EC7
:1019500004260499030D0A00616363656C65726176
:10196000746500617564696F2073746172742063BB
:101970006F6D706C6574652E2E00564353202D00DC
:101980002D2D2D2D2D202B002D2D2D2D2D202D00FD
:101990002F2F2F2F2F2F205045414B20616E642079
:1019A00077616974696E6720666F722000207365C5
:1019B000636F6E6473202F2F2F2F2F2F002F2F2F49
:1019C0002F2F2F205045414B20454E440044525369
:0419D000202D0000C6
:107E0000112484B714BE81FFF0D085E080938100F7
:107E100082E08093C00088E18093C10086E0809377
:107E2000C20080E18093C4008EE0C9D0259A86E02C
:107E300020E33CEF91E0309385002093840096BBD3
:107E4000B09BFECF1D9AA8958150A9F7CC24DD24C4
:107E500088248394B5E0AB2EA1E19A2EF3E0BF2EE7
:107E6000A2D0813461F49FD0082FAFD0023811F036
:107E7000013811F484E001C083E08DD089C08234E0
:107E800011F484E103C0853419F485E0A6D080C0E4
:107E9000853579F488D0E82EFF2485D0082F10E0AE
:107EA000102F00270E291F29000F111F8ED06801E7
:107EB0006FC0863521F484E090D080E0DECF843638
:107EC00009F040C070D06FD0082F6DD080E0C81688
:107ED00080E7D80618F4F601B7BEE895C0E0D1E017
:107EE00062D089930C17E1F7F0E0CF16F0E7DF06D8
:107EF00018F0F601B7BEE89568D007B600FCFDCFD4
:107F0000A601A0E0B1E02C9130E011968C91119780
:107F100090E0982F8827822B932B1296FA010C0160
:107F200087BEE89511244E5F5F4FF1E0A038BF0790
:107F300051F7F601A7BEE89507B600FCFDCF97BE46
:107F4000E89526C08437B1F42ED02DD0F82E2BD052
:107F50003CD0F601EF2C8F010F5F1F4F84911BD097
:107F6000EA94F801C1F70894C11CD11CFA94CF0C13
:107F7000D11C0EC0853739F428D08EE10CD085E9AC
:107F80000AD08FE07ACF813511F488E018D01DD067
:107F900080E101D065CF982F8091C00085FFFCCF94
:107FA0009093C60008958091C00087FFFCCF809118
:107FB000C00084FD01C0A8958091C6000895E0E648
:107FC000F0E098E1908380830895EDDF803219F02E
:107FD00088E0F5DFFFCF84E1DECF1F93182FE3DFCA
:107FE0001150E9F7F2DF1F91089580E0E8DFEE27F6
:047FF000FF270994CA
:027FFE00040479
:00000001FF
